:03000000020CC926
:0C0CC900787FE4F6D8FD75817E020D10E6
:100F7B00CDA8B5C0303030303A25782000B5DA3105
:100F8B003A256620202000B5DA323A25662020204B
:100F9B002000B5DA333A2566202020200A00CDA8A0
:080FAB00B5C0313A25642000B5
:10116400E4FDFCC3ED9FEC9E50070DBD00010C8017
:10117400F2E4FCFDC3ED9FEC9E50070DBD00010C95
:0211840080F2F7
:011186002246
:100AFD001211DD12124F120EF97B007A00792312BA
:100B0D000FB3EF60F4C2ACD299E51864404517708D
:100B1D00747BFF7A0F797B8517668518671206F04F
:100B2D007BFF7A0F798885266985256885246785F9
:100B3D0023661206F07BFF7A0F7992852A69852943
:100B4D00688528678527661206F07BFF7A0F799DE9
:100B5D00852E69852D68852C67852B661206F08597
:100B6D002A6A852969852868852767AF2EAE2DAD40
:100B7D002CAC2B1202B88E6B8F6CAF26AE25AD242C
:100B8D00AC23121021E5186442451770747BFF7A6F
:100B9D000F79A98517668518671206F07BFF7A0F06
:100BAD0079888526698525688524678523661206DB
:100BBD00F07BFF7A0F7992852A69852968852867E8
:100BCD008527661206F07BFF7A0F799D852E698544
:100BDD002D68852C67852B661206F0852A6A852976
:100BED0069852868852767AF2EAE2DAD2CAC2B12ED
:100BFD0002B88E6B8F6CAF26AE25AD24AC231210D0
:080C0D0056C299D2AC020B069D
:1011F500050D344310100105083443101001051284
:05120500B0B2B3B4011A
:0B125B00EFD394004004001F80F62237
:0C124F007F6412125BC290D291C2922206
:1011DD00758920758DFD758BFDD28ED2A9C29FD2DA
:0811ED009ED29CD2AFD2AC22CD
:1011C400E4FEEF339293EF25E0FFD292A294E4334E
:0811D4004207C2920EBE08EAB8
:0111DC0022F0
:0911AA007D3F7F211211B37F2269
:1011B300C2911211C4AC07AF051211C4D291AF048E
:0111C3002209
:0C124200C2911211C4E4FF1211C4D29139
:01124E00227D
:06108B008B688A69896A86
:10109100C2911211C4AD07E4FCECC3956B5017E487
:1010A100FF1211C4AB68AA69A96A8C82758300EF2B
:0A10B1001205D30C80E3D291AF05C5
:0110BB002212
:070F42007B00756B057F2A9F
:060F49008B688A69896AC9
:100F4F00C2911211C4AD07E4FCECC3956B5018AB02
:100F5F0068056AE56AAA697002056914F912057BCA
:0B0F6F00FF1211C40C80E2D291AF050C
:010F7A002254
:100EB000C2907A007908120F427B007A007912758D
:100EC0006B057F2B120F497D207F311211B37F32CA
:100ED0001211B31211AAE4FD7F251211B37D207FF8
:100EE000311211B37D077F261211B37D0F7F2012BF
:090EF00011B3D2907F8202125B63
:060FB3008B638A6489656E
:100FB900E4F566120EB07F071212428F20751700F2
:100FC9008F18300613C290AB63AA64A965756B20AC
:100FD9007F6112108B756601AD207F271211B3AFA7
:010FE90066A1
:010FEA0022E4
:100E4C008B198A1A891BC2907B007A00790D756BFD
:100E5C00057F30120F497A00790D120F42AB19AA97
:100E6C001AA91B756B207FA0120F491211AA7D1AAB
:100E7C007F241211B3E4FD7F251211B37D077F2669
:100E8C001211B37D0E7F201211B3D2907F0A121271
:100E9C005B7F071212428F207F07121242AD077F31
:040EAC00270211B355
:100FEB00B3ACCAB100B3ACCBD900B3ACB3CC0041FA
:100FFB003A00423A002073002A2ACBABB3B5C4A304
:10100B00C4E22A2A00CBD9B6C82D2DC2B7B3CC2D3A
:06101B002DCAB1BCE40087
:10122000E4FEEEC39F500AE4FD000DBD7DFB0E8081
:01123000F1CC
:01123100229A
:0F118700121196ED54F0FF121196EDC454F0FFC3
:10119600E4FEC2A700EF3392A5D2A7EF25E0FF0E2B
:0311A600BE08EF91
:0111A9002223
:10123200AD07D2A67FF8121187C2A67F0A0212203A
:05120B00E56F2430FF37
:10121000AD07D2A67FFA121187C2A67F0A0212205A
:1010E8007F05121220D2B4C2B4D2B4C2B27F301279
:1010F80012327F0C1212327F011212327F05121245
:0B110800207F021212327F060212321A
:10111300EF24FE601014601314601624037016EDA0
:10112300247FFC8010ED248FFC800AED2487FC8053
:0A11330004ED2497FCAF0402123211
:0410BC007BFF7D0138
:1010C0008B778A788979121113AB77AA78A979126C
:1010D000057B60130579E5797002057814F912052E
:0810E0007BFF12121080E222D6
:0D0C15008F6D8D6EC3EB9464EA9400502D3A
:100C22007C007D0AAF03AE021205F58F6F7C007D5A
:100C32000AAF03AE021205F58D70AD6EAF6D1211E3
:0B0C4200137F3012121012120BE5702D
:100C4D008066D3EB9463EA94004063EB94E7EA94F7
:030C5D0003505BE6
:100C60007C007D64AF03AE021205F58F6F7C007DC2
:100C700064AF03AE021205F57E007F0ACFCDCFCE62
:100C8000CCCE1205F58F70AE02AF037C007D6412EE
:100C900005F57E007F0ACFCDCFCECCCE1205F58DE7
:100CA00071AD6EAF6D12111312120BE5702430FF8F
:0B0CB000121210E5712430FF02121038
:0E0CBB007BFF7A0F79EBAD6EAF6D1210C02289
:040DD5008F6D8D6E23
:100DD900AF72AE71AD70AC6F1202B88F73AC73E4C1
:100DE900120284A804A905AA06AB07AF72AE71ADB9
:100DF90070AC6F120006E4FBFA792078411200FB0F
:100E09001202B88F74E4FFFE7D207C41AB72AA7197
:100E1900A970A86F120201400D7BFF7A0F79F0AD1E
:100E29006EAF6D0210C0AD6EAF6D121113E5732474
:100E390030FF1212107F2E121210E5742430FF12A7
:020E4900121085
:010E4B002284
:100D55008F6D8D6EE4FFFE7DA07C41AB72AA71A9FB
:100D650070A86F120201400D7BFF7A0F79F5AD6E09
:050D7500AF6D0210C08B
:100D7A00E4FFFE7D207C41AB72AA71A970A86F12B4
:100D8A0000FB1202B88F73E57375F06484F574E59D
:100D9A007375F06484AFF0EF75F00A84F575EF753A
:100DAA00F00A8485F076AD6EAF6D121113E57424E6
:100DBA0030FF121210E5752430FF1212107F2E1226
:0A0DCA001210E5762430FF1212101B
:010DD40022FC
:100EF9001210E87BFF7A1079037D027F011210C07E
:100F09007A1079107F021210BC7A0F79FA7F0312D6
:100F190010BC7BFF7A0F79FD7D017F041210C07B25
:100F2900FF7A1079007D087F031210C07BFF7A10C9
:090F390079007D087F040210C05C
:101021008F668E658D648C638F728E718D708C6FFF
:101031007D027F03120DD5856A728569718568709D
:1010410085676F7D047F03120D55AB6CAA6B7D071D
:051051007F03020C15F5
:101056008F668E658D648C638F728E718D708C6FCA
:101066007D027F04120DD5856A7285697185687067
:1010760085676F7D047F04120D55AB6CAA6B7D07E7
:051086007F04020C15BF
:10000300020324E86480F8E933E83360110460F004
:10001300ED33EC337009E8FCE9FDEAFEEBFF220463
:1000230060DED3EB9FEA9EE99DE8C2E78CF0C2F75E
:1000330095F0400CE8CCF8E9CDF9EACEFAEBCFFB2A
:100043001202EF85D0F05804700320D5B3E8047092
:10005300075002B2D502032E92D5EC0460F7E4CC2C
:10006300C0E0C398F8603B94186008400DD0E0FBF3
:10007300020306E4FBFAC9FC8028E830E406E4C97D
:10008300FBE4CAFCE830E305E4C9CACBFCE8540747
:100093006010F8C3E913F9EA13FAEB13FBEC13FC52
:1000A300D8F130F52FC3E49CFCEF9BFFEE9AFEEDF5
:1000B30099FDD0E0FBEF4E4D4C701222DB0302039F
:1000C3002BEC2CFCEF33FFEE33FEED33FDED30E78D
:1000D300EB020306EF2BFFEE3AFEED39FDD0E0FB1A
:1000E30050130BBB000302032EED13FDEE13FEEFC3
:0800F30013FFEC13FC020306ED
:1000FB00EC4D6011E8497017ED33EC3304600DE4FF
:10010B00FCFFFEFD22E933E8330470F802032412EE
:10011B0002EF58046009E4CC2481500628500902F0
:10012B00032E28400302032BC0E0EB4A7044B98036
:10013B0006D0E0FB02031AEF4E701CBD8008EBFFEC
:10014B00EAFEE9FD80EBE98DF0A4FEE5F00201E4A7
:10015B00E9CDF9EAFEEBFFEF89F0A4FCE5F0CE89DF
:10016B00F0A42EFFE435F0CD89F0A42DFEE435F09C
:10017B008067EF4E7005BD80D780C3EF8BF0A4ACCA
:10018B00F0EE8BF0A42CFCE435F0F8EF8AF0A42C05
:10019B00E5F038FCE433CB8DF0A42CFCE5F03BF818
:1001AB00EE8AF0A42CFCE5F038F8E433CF89F0A408
:1001BB002CFCE5F038CF3400CE89F0A42FFFE5F00E
:1001CB003EFEE433C98DF0A42EFEE5F039CD8AF066
:1001DB00A42FFFE5F03EFEE43DFD33D0E0FB5007DE
:1001EB000BBB000F02032EEC2CFCEF33FFEE33FEA8
:0601FB00ED33FD020306D6
:1002010074F8CC6480CCC86480C8F58204604FC3A4
:10021100EB9FF5F0EA9E42F0E99D42F0E89C45F043
:10022100603C501DE5825FFFE582D313CB5BCBF4CD
:100231002B5582FB50280ABA002409B900200880F6
:100241001DE5825BFBE582D313CF5FCFF4C3132F90
:100251005582FF50090EBE00050DBD00010CC3EB18
:100261009FF5F0EA9E42F0E99D42F0E89C45F0607E
:0902710007CC4820E701B3EC22A0
:10027A0075F020800E75F010800575F0087D007EFF
:10028A00007F003392D530D50312064AEC33401072
:10029A00EF33FFEE33FEED33FDEC33FCD5F0ED2208
:0E02AA00E5F0247EA2D513CC92E7CDCEFF2244
:1002B800EDD2E7CD33EC3392D524814006E4FFFE3E
:1002C800FDFC22FCE4CFCECDCC24E0501174FF809D
:1002D800EDC3CC13CCCD13CDCE13CECF13CF04703A
:0702E800F030D5DE02064AEA
:10068E00E57A2466F8E6057A227863300F027866FA
:10069E00E475F00112065802057B2008EB7F2ED27E
:1006AE00088018EF540F2490D43440D4FF300C0B34
:1006BE00EF24BFB41A0050032461FFE57B600215DE
:1006CE007B057EE57E7002057D300F0D7863E47547
:1006DE00F001120658EF0205C102113D7403D20F4C
:1006EE008003E4C20FF57A8B638A648965E4F57B37
:1006FE00F57DF57EE57B60077F201206C980F575D6
:10070E007CFFC209C208C20AC20BC20DC20EC210C1
:10071E00120697FF700D300F057F001206DAAF7EBE
:10072E00AE7D22B4255FC2D5C20C120697FF24D02F
:10073E00B40A00501A75F00A787B30D50508B6FF5A
:10074E000106C6A426F620D5047002D20B80D92449
:10075E00CFB41A00EF5004C2E5D20C0209C7D20979
:10076E0080C6D20880C0D20A80BCD2D580BAD20D43
:10077E0080B47F201206C9200A077401B57B0040A1
:10078E00F112068EFF1206C9020702D210D20E8097
:10079E009512068EFB12068EFA12068EF94A4B70D1
:1007AE000679BE7A0A7BFF200A2EE57B602A7E0040
:1007BE008E8275830012059460060EEE657C70F0D5
:1007CE00C2D5EBC0E0EAC0E0E9C0E0EE120A27D0E5
:1007DE00E0F9D0E0FAD0E0FB12057BFF60AAEBC097
:1007EE00E0EAC0E0E9C0E01206C9D0E02401F9D089
:1007FE00E03400FAD0E0FBE57C0460DCD57CD980E7
:10080E0087D20A80A2120A0A60F7E57C70010412F0
:10081E000339A97C600DE57C600914F57C120AB1E0
:10082E00EF60F3EA30E702F404C3995077EAF42557
:10083E007C0430E701E404F57C800D120A0A60C1E5
:10084E00EA057C257C120339EA7879F630E701E473
:10085E00257C04D57C04200D0114120A27E4C0E087
:10086E00120AB17879E6601320E70714F61206B182
:10087E00802204F6D0E014C0E07F001206B1E57CC1
:10088E0060071206A8157C800B300D031206A8D047
:10089E00E0020702D0E00480C5120A0A60A0E57CDF
:1008AE00041203397879EAF6E57C200D0260010422
:0508BE002404120A27CA
:1008C30074FF04C0E0120AB11206B1E57C200D02E8
:1008D30060031206A8D0E0B57CE87F451206BB781A
:1008E30079E67F2B30E7047F2DF404C0E01206C9BC
:1008F300D0E075F00A84C0F01206B2D0E01206B25E
:10090300020702791080027908C20EC2108008D251
:10091300D5790A8004790AC2D5E57C047002F57C96
:10092300E4FAFDFEFF12068EFC7B08200913120673
:100933008EFD7B1030080A12068EFE12068EFF7B98
:1009430020EC3382D592D55013C3E43008069FFFC1
:10095300E49EFEE42009039DFDE49CFCE4CBF8C285
:1009630009EC700CCFCECDCCE824F8F870F38017E7
:10097300C3EF33FFEE33FEED33FDEC33FCEB33FB20
:10098300994002FB0FD8E9EB300905F8D0E0C448E1
:10099300B209C0E00AEC4D4E4F78207B0070C2EAEA
:1009A300B57C0040BCC0E0120A29D0F0D0E0200999
:1009B30004C4C0E0C4B209C0F01206B2D0F0D5F04E
:1009C300EB020702120668079F5309065807704C8B
:1009D300076C42090A4F0912440912490785430962
:1009E300185508494608A7450813470ADE500774F7
:1009F3002D07782E079B2B077C230799200AC72AEC
:100A030007344800000793E57CB4FF03757C0612A6
:100A1300068EFC12068EFD12068EFE12068EFF78DF
:100A230072020368790AA2D5200B14300D09B9109C
:100A3300020404B9080104A2D5200E0250010420C7
:100A43000A68920AB57B005034C0E07F20300B194E
:100A53007F30A20A720E720D500F120A80C20AC2B0
:100A63000EC20DC2107F30800F300D03E9C0E012BB
:100A730006C9300D03D0E0F9D0E0B57BCC300D17BB
:100A83007F30B9100C1206C97F58300C077F78806D
:100A930003B908031206C9300A057F2D0206C97F70
:100AA300202010F87F2B200EF322920A80CF7F00A4
:100AB300B4070050052472F8E6FF22286E756C6CAB
:100AC3002900D20912068E3009F8C209787B30D585
:100AD3000108F60207342D5043495812068E2403A9
:100AE300B405004001E4900AD9931206BA743A128D
:0A0AF30006BAD20B757B0402090657
:1002EF00E9D2E7C933E833F892D5EDD2E7CD33EC55
:0702FF0033FC5002B2D522CE
:10030600EC30E7100FBF000C0EBE00080DBD000458
:100316000BEB6014A2D5EB13FCED92E7FD2274FF04
:10032600FCFDFEFF22E480F8A2D574FF13FC7D805D
:03033600E480EF71
:10033900F920E72824F950037907E4F42402FB188B
:10034900DBFDE624FB5014E9600DE4F618E604F63B
:0F035900B40A08E4F6D9F57401F60A22C2D522D7
:10036800ED33EC3392D5FA602AB4FF33EDC2E77B64
:10037800FF60067A03798DE4227A03799620D50402
:100388007A037991224E614E002B494E46002D4941
:100398004E4600E47A08F608DAFC7B00740722E887
:1003A800C0E0ECC0E0EDC0E0EEC0E0EFC0E0EA7510
:1003B800F010A4CAABF075F04DA42BFBE435F0FCAB
:1003C800EA2410FAEB34C5FBEC34D9FCEDC2E7FFA4
:1003D80075F056A4F42411C5F0F434C58FF0A42A9E
:1003E800E5F03BE43CF620E71412053BD0E0FFD0F3
:1003F800E0FED0E0FDD0E0FC12046E8014F404129C
:10040800053BD0E0FFD0E0FED0E0FDD0E0FC1200DC
:10041800FBD0E0F8E6FAEDD2E7CD33EC332482FBEB
:10042800E4C3CF33CFCE33CECD33CD33DBF37B072D
:1004380075F00A846004F6081B0AE5F0F6088FF0E8
:10044800740AA4FFACF08EF0740AA42CFEACF05031
:10045800010C8DF0740AA42CFDE435F0F608DBDEFF
:03046800740722F4
:10046B0002032EEC5D046005E859047003020324BB
:10047B001202EF580460F6EC4860F2EC7004FDFEDB
:10048B00FF22C860DB2481C85009C3986002500664
:10049B0002032B9850CAF582E9294B4A7005AB82AF
:1004AB0002031A75F0007C1A7880C3EF9BEE9AED6D
:1004BB0099400DC3EF9BFFEE9AFEED99FDE842F0DC
:1004CB00DC23ACF0D0E0FFD0E0FED0E0FDAB82202F
:1004DB00E7101BEB60BAEC2CFCEF33FFEE33FEEDB9
:1004EB0033FD020306E803F830E705C0F075F000B2
:1004FB00EF2FFFEE33FEED33FD40B830E7C280AA9D
:10050B003F8000004120000042C80000447A0000F8
:10051B00461C400047C35000497424004B1896807A
:10052B004CBEBC205A0E1BCA6753C21C749DC5AE71
:10053B00FB60065407601C2323120569EB543860DB
:10054B00091205551205641200FBECF8EDF9EEFAF1
:10055B00EFCB22EB12056480F1543803241C900579
:10056B000BFE93FC0EEE93FD0EEE930ECE93FF223D
:100CD500020AFDE493A3F8E493A34003F68001F22E
:100CE50008DFF48029E493A3F85407240CC8C33320
:100CF500C4540F4420C8834004F456800146F6DFEF
:100D0500E4800B01020408102040809011F5E47E78
:100D1500019360BCA3FF543F30E509541FFEE493E3
:100D2500A360010ECF54C025E060A840B8E493A3AA
:100D3500FAE493A3F8E493A3C8C582C8CAC583CAD5
:100D4500F0A3C8C582C8CAC583CADFE9DEE780BE8D
:01120A0000E3
:10057B00BB010689828A83E0225002E722BBFE027E
:09058B00E32289828A83E49322B1
:10059400BB010CE58229F582E5833AF583E022501C
:1005A40006E92582F8E622BBFE06E92582F8E22266
:0D05B400E58229F582E5833AF583E4932280
:1005C100BB010689828A83F0225002F722BBFE0119
:0205D100F32213
:1005D300F8BB010DE58229F582E5833AF583E8F05E
:1005E300225006E92582C8F622BBFE05E92582C80A
:0205F300F222F2
:1005F500BC000BBE0029EF8DF084FFADF022E4CCEA
:10060500F875F008EF2FFFEE33FEEC33FCEE9DECB2
:10061500984005FCEE9DFE0FD5F0E9E4CEFD22EDF8
:10062500F8F5F0EE8420D21CFEADF075F008EF2F42
:10063500FFED33FD4007985006D5F0F222C398FD33
:050645000FD5F0EA22D0
:0E064A00C3E49FFFE49EFEE49DFDE49CFC22C1
:10065800FAE6FB0808E6F925F0F618E6CA3AF622A3
:10066800D083D082F8E4937012740193700DA3A321
:1006780093F8740193F5828883E473740293686035
:06068800EFA3A3A380DF35
:10113D00EFB40A07740D121148740A309811A8996A
:10114D00B8130CC2983098FDA899C298B811F63012
:07115D0099FDC299F59922EA
:00000001FF
